:020000040800F2
:10000000000400200501000845030008B3020008B1
:1000100041030008850100080505000800000000F4
:10002000000000000000000000000000B503000810
:10003000890100080000000091030008A1040008E5
:100040001F0100081F0100081F0100081F01000810
:100050001F0100081F0100081F0100081F01000800
:100060001F0100081F0100081F0100081F010008F0
:100070001F0100081F0100081F0100081F010008E0
:100080001F0100081F0100081F0100081F010008D0
:100090001F0100081F0100081F0100081F010008C0
:1000A0001F0100081F0100081F0100081F010008B0
:1000B0001F0100081F0100081F0100081F010008A0
:1000C0001F0100081F0100081F0100081F01000890
:1000D0001F0100081F0100081F0100081F01000880
:1000E0001F0100081F0100081F010008DFF810D0E1
:1000F00000F01AF80048004729050008AFF3008017
:10010000000400200648804706480047FEE7FEE757
:10011000FEE7FEE7FEE7FEE7FEE7FEE7FEE7FEE7B7
:10012000A5040008ED000008064C074D06E0E06855
:1001300040F0010394E8070098471034AC42F6D32E
:10014000FFF7D8FF700500088005000808B50020FB
:1001500000900121042000F01DF9402008490860AA
:1001600010208DF803004020ADF8000003208DF82A
:10017000020069460248143800F007F808BD000084
:100180001408014000BFFEE770472DE9F041024628
:1001900000250026002000230024002791F803C03A
:1001A0000CF00F0591F803C00CF0100CBCF1000F1F
:1001B00003D091F802C04CEA050591F800C0BCF1EB
:1001C000000F31D0146800202BE04FF0010C0CFA26
:1001D00000F3B1F800C00CEA03069E4220D1830070
:1001E0004FF00F0C0CFA03F7BC4305FA03FC4CEA82
:1001F000040491F803C0BCF1280F06D14FF0010CA4
:100200000CFA00FCC2F814C00AE091F803C0BCF17B
:10021000480F05D14FF0010C0CFA00FCC2F810C0D9
:10022000401C0828D1D31460B1F800C0BCF1FF0F06
:1002300034DD546800202EE000F1080C4FF0010876
:1002400008FA0CF3B1F800C00CEA03069E4221D173
:1002500083004FF00F0C0CFA03F7BC4305FA03FCC4
:100260004CEA040491F803C0BCF1280F05D100F159
:10027000080C08FA0CF8C2F8148091F803C0BCF11D
:10028000480F07D100F1080C4FF0010808FA0CF8EC
:10029000C2F81080401C0828CED35460BDE8F0811D
:1002A0000246002093680B400BB1012000E00020C3
:1002B000704700BFFEE7000008B500200090012154
:1002C000082000F067F80121082000F063F8012100
:1002D000082000F05FF84FF4005018490860400013
:1002E00008604000086010208DF803004002ADF85F
:1002F000000003208DF80200694610481438FFF70B
:1003000044FF10208DF803008002ADF800000320A8
:100310008DF80200694609481438FFF736FF1020AF
:100320008DF80300C002ADF8000003208DF8020034
:10033000694602481438FFF728FF08BD140C014035
:1003400000BFFEE77047000008B5002000900121C3
:10035000042000F01FF804208DF803008002ADF89F
:10036000000003208DF8020069460248FFF70DFFE8
:1003700008BD00000008014070B504460D4629463E
:100380002046FFF78DFF08B9002070BD0120FCE773
:100390007047000029B1064A92690243044B9A61F2
:1003A00004E0034A92698243014B9A61704700005E
:1003B00000100240704710B500F002F810BD0000B8
:1003C0000CB50020019000903348006840F4803064
:1003D0003149086000BF3048006800F400300090E8
:1003E0000198401C0190009818B90198B0F5A06FD1
:1003F000F1D12948006800F4003010B101200090CC
:1004000001E0002000900098012843D123480068B3
:1004100040F01000214908600846006820F00700FD
:1004200008600846006840F0020008601A4840680A
:10043000194948600846406848600846406840F4EA
:10044000806048600846406820F47C104860084698
:10045000406840F4E81048600846006840F080704A
:10046000086000BF0C48006800F000700028F9D058
:100470000948406820F00300074948600846406882
:1004800040F00200486000BF0348406800F00C00E4
:100490000828F9D10CBD00000010024000200240E5
:1004A0007047000010B51348006840F00100114982
:1004B000086008464068104908400E4948600846F0
:1004C00000680E4908400B4908600846006820F49F
:1004D000802008600846406820F4FE0048604FF421
:1004E0001F008860FFF767FF4FF000600449086055
:1004F00010BD0000001002400000FFF8FFFFF6FEF4
:1005000008ED00E000BFFEE702E008C8121F08C1C6
:10051000002AFAD170477047002001E001C1121F84
:10052000002AFBD170470000FFF70EFFFFF7C4FE63
:10053000FFF70CFE17E04FF480510B48FFF71CFF4C
:1005400040B94FF400500949086040200649103175
:10055000086008E04FF400500449091D086040207D
:10056000014914310860E6E700080140100C014021
:1005700080050008000000200004000018050008A5
:0400000508000105E9
:00000001FF
