:020000040800F2
:100000000004002005010008D90300081D030008B2
:10001000D50300084D010008650500080000000038
:1000200000000000000000000000000015040008AF
:100030005101000800000000F1030008010500085C
:100040001F0100081F0100081F0100081F01000810
:100050001F0100081F010008550100081F010008CA
:100060001F0100081F0100081F0100081F010008F0
:100070001F0100081F0100081F0100081F010008E0
:100080001F0100081F0100081F0100081F010008D0
:100090001F0100081F0100081F0100081F010008C0
:1000A0001F0100081F0100081F0100081F010008B0
:1000B0001F0100081F0100081F0100081F010008A0
:1000C0001F0100081F0100081F0100081F01000890
:1000D0001F0100081F0100081F0100081F01000880
:1000E0001F0100081F0100081F010008DFF810D0E1
:1000F00000F01AF80048004789050008AFF30080B7
:10010000000400200648804706480047FEE7FEE757
:10011000FEE7FEE7FEE7FEE7FEE7FEE7FEE7FEE7B7
:1001200005050008ED000008064C074D06E0E068F4
:1001300040F0010394E8070098471034AC42F6D32E
:10014000FFF7D8FFC0050008D005000800BFFEE794
:100150007047000010B5012000F014F8012808D104
:100160000448006880F0020002490860012000F0A5
:1001700003F810BD0C0801400149086070470000F9
:100180001404014001460020034A12680A400AB1E3
:10019000012000E0002070471404014008B5002051
:1001A00000900121042000F025F90121102000F029
:1001B00021F904208DF803000120ADF80000032090
:1001C0008DF802006946084800F012F804208DF806
:1001D0000300C002ADF8000003208DF8020069465C
:1001E000024800F005F808BD000801400010014079
:1001F0002DE9F041024600250026002000230024BE
:10020000002791F803C00CF00F0591F803C00CF023
:10021000100CBCF1000F03D091F802C04CEA0505A8
:1002200091F800C0BCF1000F31D0146800202BE021
:100230004FF0010C0CFA00F3B1F800C00CEA030611
:100240009E4220D183004FF00F0C0CFA03F7BC4301
:1002500005FA03FC4CEA040491F803C0BCF1280F32
:1002600006D14FF0010C0CFA00FCC2F814C00AE0F1
:1002700091F803C0BCF1480F05D14FF0010C0CFA06
:1002800000FCC2F810C0401C0828D1D31460B1F89B
:1002900000C0BCF1FF0F34DD546800202EE000F1F7
:1002A000080C4FF0010808FA0CF3B1F800C00CEA92
:1002B00003069E4221D183004FF00F0C0CFA03F786
:1002C000BC4305FA03FC4CEA040491F803C0BCF1FA
:1002D000280F05D100F1080C08FA0CF8C2F81480B8
:1002E00091F803C0BCF1480F07D100F1080C4FF0A2
:1002F000010808FA0CF8C2F81080401C0828CED378
:100300005460BDE8F0810246002093680B400BB1B9
:10031000012000E0002070470161704700BFFEE748
:1003200070B504460D4629462046FFF7ECFF01282C
:1003300008D100BF29462046FFF7E5FF0128F9D084
:10034000012070BD0020FCE708B5002000900121CD
:10035000042000F04FF80121042000F04BF80121A7
:10036000042000F047F802211948FFF7D5FF0421C7
:100370001748FFF7D1FF08211548FFF7CDFF1020E0
:100380008DF803000220ADF8000003208DF8020074
:1003900069460F48FFF72CFF10208DF8030004205A
:1003A000ADF8000003208DF8020069460848FFF709
:1003B0001FFF10208DF803000820ADF80000032077
:1003C0008DF8020069460248FFF712FF08BD0000E1
:1003D0000008014000BFFEE77047000002490143EA
:1003E000024A1160704700000000FA050CED00E0C1
:1003F0007047000029B1064A92690243044B9A6192
:1004000004E0034A92698243014B9A6170470000FD
:1004100000100240704710B500F002F810BD000057
:100420000CB50020019000903348006840F4803003
:100430003149086000BF3048006800F40030009087
:100440000198401C0190009818B90198B0F5A06F70
:10045000F1D12948006800F4003010B1012000906B
:1004600001E0002000900098012843D12348006853
:1004700040F01000214908600846006820F007009D
:1004800008600846006840F0020008601A484068AA
:10049000194948600846406848600846406840F48A
:1004A000806048600846406820F47C104860084638
:1004B000406840F4E81048600846006840F08070EA
:1004C000086000BF0C48006800F000700028F9D0F8
:1004D0000948406820F00300074948600846406822
:1004E00040F00200486000BF0348406800F00C0084
:1004F0000828F9D10CBD0000001002400020024085
:100500007047000010B51348006840F00100114921
:10051000086008464068104908400E49486008468F
:1005200000680E4908400B4908600846006820F43E
:10053000802008600846406820F4FE0048604FF4C0
:100540001F008860FFF767FF4FF0006004490860F4
:1005500010BD0000001002400000FFF8FFFFF6FE93
:1005600008ED00E000BFFEE702E008C8121F08C166
:10057000002AFAD170477047002001E001C1121F24
:10058000002AFBD1704700004FF44070FFF726FFB0
:10059000FFF7DAFEFFF702FE0CE04FF400510648C9
:1005A000FFF7BEFE012805D10448006880F0040072
:1005B00002490860F1E70000001001400C0801400A
:1005C000D0050008000000200004000078050008A5
:0400000508000105E9
:00000001FF
