:020000040800F2
:100000000004002005010008FD0400084104000868
:10001000F90400084D01000839070008000000003D
:10002000000000000000000000000000EB050008D8
:10003000510100080000000085050008D5060008F1
:100040001F0100081F0100081F0100081F01000810
:100050001F0100081F010008550100081F010008CA
:100060001F0100081F0100081F0100081F010008F0
:100070001F0100081F0100081F0100081F010008E0
:100080001F0100081F0100081F0100081F010008D0
:100090001F0100081F0100081F0100081F010008C0
:1000A0001F0100081F0100081F0100081F010008B0
:1000B0001F0100081F0100081F0100081F010008A0
:1000C0001F0100081F0100081F0100081F01000890
:1000D0001F0100081F0100081F0100081F01000880
:1000E0001F0100081F0100081F010008DFF810D0E1
:1000F00000F01AF8004800475D070008AFF30080E1
:10010000000400200648804706480047FEE7FEE757
:10011000FEE7FEE7FEE7FEE7FEE7FEE7FEE7FEE7B7
:10012000D9060008ED000008064C074D06E0E0681F
:1001300040F0010394E8070098471034AC42F6D32E
:10014000FFF7D8FF98070008A807000800BFFEE7E0
:100150007047000010B5012000F014F8012808D104
:100160000448006880F0020002490860012000F0A5
:1001700003F810BD0C0801400149086070470000F9
:100180001404014001460020034A12680A400AB1E3
:10019000012000E0002070471404014000212349A1
:1001A0008279002A3AD00A46126803689A430B46BD
:1001B0001A600A1D126803689A430B1D1A600279BF
:1001C00011440A6803681A430A60184A0832126820
:1001D00003689A43154B08331A601A1D12680368A6
:1001E0009A43124B0C331A604279102A0ED11A1F0F
:1001F000126803681A430D4B08331A601A1D1268FF
:1002000003681A43094B0C331A600DE00749427921
:1002100011440A6803681A430A6005E00279114430
:100220000A6803689A430A607047000000040140AE
:100230001FB500200390029000900190012104203E
:1002400000F0A2F90121084600F09EF906208DF881
:10025000080001208DF8090000208DF80A00012017
:100260008DF80B0002A800F04BF904208DF80F0068
:100270000120ADF80C0003208DF80E0003A91348EF
:1002800000F048F80021084600F024F80120009012
:1002900000208DF804000C208DF8050001208DF859
:1002A00006006846FFF77AFF0121102000F06CF984
:1002B00004208DF80F00C002ADF80C0003208DF86B
:1002C0000E0003A9024800F025F81FBD00080140F8
:1002D0000010014030B500228B071C0F0F2303FADA
:1002E00004F20B4B8C1053F824309343084C8D10C0
:1002F00044F8253023468C1053F824308C07240F03
:1003000000FA04F42343024C8D1044F8253030BD2C
:10031000080001402DE9F04102460025002600209A
:1003200000230024002791F803C00CF00F0591F87A
:1003300003C00CF0100CBCF1000F03D091F802C008
:100340004CEA050591F800C0BCF1000F31D01468EB
:1003500000202BE04FF0010C0CFA00F3B1F800C0C4
:100360000CEA03069E4220D183004FF00F0C0CFADA
:1003700003F7BC4305FA03FC4CEA040491F803C0FC
:10038000BCF1280F06D14FF0010C0CFA00FCC2F8AA
:1003900014C00AE091F803C0BCF1480F05D14FF03A
:1003A000010C0CFA00FCC2F810C0401C0828D1D384
:1003B0001460B1F800C0BCF1FF0F34DD54680020B8
:1003C0002EE000F1080C4FF0010808FA0CF3B1F828
:1003D00000C00CEA03069E4221D183004FF00F0CAF
:1003E0000CFA03F7BC4305FA03FC4CEA040491F849
:1003F00003C0BCF1280F05D100F1080C08FA0CF875
:10040000C2F8148091F803C0BCF1480F07D100F185
:10041000080C4FF0010808FA0CF8C2F81080401CD4
:100420000828CED35460BDE8F081024600209368CE
:100430000B400BB1012000E00020704701617047C4
:1004400000BFFEE770B504460D4629462046FFF77B
:10045000ECFF012808D100BF29462046FFF7E5FF41
:100460000128F9D0012070BD0020FCE708B500206C
:1004700000900121042000F087F80121042000F001
:1004800083F80121042000F07FF802211948FFF7CA
:10049000D5FF04211748FFF7D1FF08211548FFF7C2
:1004A000CDFF10208DF803000220ADF800000320DE
:1004B0008DF8020069460F48FFF72CFF10208DF8D9
:1004C00003000420ADF8000003208DF80200694607
:1004D0000848FFF71FFF10208DF803000820ADF833
:1004E000000003208DF8020069460248FFF712FF62
:1004F00008BD00000008014000BFFEE77047000093
:1005000070B5002100230F22C47804B3154C246871
:1005100004F4E064C4F5E064210AC1F10403CA40B4
:10052000447804FA03F184781440214309010E4C05
:100530000678A155047804F01F050124AC40057825
:100540006D11AD0005F1E025C5F8004109E0047822
:1005500004F01F050124AC40044D0678761145F8DF
:10056000264070BD0CED00E000E400E080E100E01A
:1005700002490143024A1160704700000000FA0579
:100580000CED00E07047000029B1064A9269024371
:10059000044B9A6104E0034A92698243014B9A61D9
:1005A000704700000010024001B5002001E000BFCC
:1005B000401C00998842FAD308BD01B54FF47A7205
:1005C000009901FB02F000F00AF808BD01B54FF4F4
:1005D0007A72009901FB02F0FFF7EFFF08BD01B549
:1005E0000099C800FFF7E0FF08BD704710B500F0A4
:1005F00001F810BD0CB50020019000903348006850
:1006000040F480303149086000BF3048006800F491
:10061000003000900198401C0190009818B9019892
:10062000B0F5A06FF1D12948006800F4003010B196
:100630000120009001E0002000900098012843D1A3
:100640002348006840F0100021490860084600680F
:1006500020F0070008600846006840F002000860CB
:100660001A4840681949486008464068486008468A
:10067000406840F4806048600846406820F47C1080
:1006800048600846406840F4E81048600846006842
:1006900040F08070086000BF0C48006800F00070F7
:1006A0000028F9D00948406820F003000749486055
:1006B0000846406840F00200486000BF03484068B8
:1006C00000F00C000828F9D10CBD00000010024019
:1006D000002002407047000010B51348006840F049
:1006E00001001149086008464068104908400E4959
:1006F0004860084600680E4908400B4908600846F3
:10070000006820F4802008600846406820F4FE005D
:1007100048604FF41F008860FFF768FF4FF00060EB
:100720000449086010BD0000001002400000FFF8FE
:10073000FFFFF6FE08ED00E000BFFEE702E008C89C
:10074000121F08C1002AFAD170477047002001E04B
:1007500001C1121F002AFBD1704700004FF4407006
:10076000FFF706FFFFF782FEFFF762FD0FE04FF491
:1007700000510748FFF766FE012805D105480068CB
:1007800080F00400034908600320FFF71FFFEEE735
:10079000001001400C080140A807000800000020DC
:0807A000000400004C070008F2
:0400000508000105E9
:00000001FF
