:020000040800F2
:100000000004002005010008DD0400087F0200084C
:10001000D90400084D010008810600080000000016
:100020000000000000000000000000003105000892
:100030005101000800000000DF0400081D06000850
:100040001F0100081F0100081F0100081F01000810
:100050001F0100081F0100081F0100081F01000800
:100060001F0100081F0100081F0100081F010008F0
:100070001F0100081F0100081F0100081F010008E0
:100080001F0100081F0100081F0100081F010008D0
:100090001F0100081F0100081F0100081F010008C0
:1000A0001F0100081F0100081F0100081F010008B0
:1000B0001F0100081F0100081F0100081F010008A0
:1000C0001F0100081F0100081F0100081F01000890
:1000D0001F0100081F0100081F0100081F01000880
:1000E0001F0100081F0100081F010008DFF810D0E1
:1000F00000F01AF800480047A5060008AFF300809A
:10010000000400200648804706480047FEE7FEE757
:10011000FEE7FEE7FEE7FEE7FEE7FEE7FEE7FEE7B7
:1001200021060008ED000008064C074D06E0E068D7
:1001300040F0010394E8070098471034AC42F6D32E
:10014000FFF7D8FF740700088407000800BFFEE728
:1001500070472DE9F04102460025002600200023CB
:100160000024002791F803C00CF00F0591F803C09C
:100170000CF0100CBCF1000F03D091F802C04CEA57
:10018000050591F800C0BCF1000F31D014680020C3
:100190002BE04FF0010C0CFA00F3B1F800C00CEAB0
:1001A00003069E4220D183004FF00F0C0CFA03F798
:1001B000BC4305FA03FC4CEA040491F803C0BCF10B
:1001C000280F06D14FF0010C0CFA00FCC2F814C045
:1001D0000AE091F803C0BCF1480F05D14FF0010CC3
:1001E0000CFA00FCC2F810C0401C0828D1D31460DF
:1001F000B1F800C0BCF1FF0F34DD546800202EE0E0
:1002000000F1080C4FF0010808FA0CF3B1F800C037
:100210000CEA03069E4221D183004FF00F0C0CFA2A
:1002200003F7BC4305FA03FC4CEA040491F803C04D
:10023000BCF1280F05D100F1080C08FA0CF8C2F83F
:10024000148091F803C0BCF1480F07D100F1080CED
:100250004FF0010808FA0CF8C2F81080401C08287A
:10026000CED35460BDE8F0810246002093680B4075
:100270000BB1012000E0002070470161704700BF12
:10028000FEE7000008B5002000900121082000F0E2
:1002900027F948208DF803002020ADF80000032046
:1002A0008DF8020069461648FFF753FF48208DF885
:1002B00003004020ADF8000003208DF802006946DD
:1002C0000F48FFF746FF48208DF803008020ADF867
:1002D000000003208DF8020069460948FFF739FF46
:1002E00048208DF803004FF48070ADF80000032023
:1002F0008DF8020069460248FFF72BFF08BD000099
:10030000000C01402DE9F04106460F4600241E2551
:1003100039463046FFF7A8FF98B906E0641C012073
:1003200000F0F7F8AC4200D105E039463046FFF75F
:100330009BFF0028F2D000BFAC4202D00020BDE8F5
:10034000F0810120FBE7000008B5002000900121AA
:10035000042000F0C5F80121102000F0C1F80420AD
:100360008DF803000120ADF8000003208DF8020095
:1003700069460848FFF7EDFE04208DF80300C0022F
:10038000ADF8000003208DF8020069460248FFF72F
:10039000E0FE08BD000801400010014070B50446B1
:1003A0000D4629462046FFF75FFF012808D100BF10
:1003B00029462046FFF758FF0128F9D0012070BDDB
:1003C0000020FCE708B5002000900121082000F083
:1003D00087F80121082000F083F80121082000F0AF
:1003E0007FF84FF400501849086040000860400052
:1003F000086010208DF803004002ADF800000320D3
:100400008DF80200694610481438FFF7A2FE10204C
:100410008DF803008002ADF8000003208DF8020083
:10042000694609481438FFF794FE10208DF8030040
:10043000C002ADF8000003208DF8020069460248B2
:100440001438FFF786FE08BD140C014008B50020E3
:1004500000900121042000F043F80121042000F065
:100460003FF80121042000F03BF802211948FFF772
:1004700004FF04211748FFF700FF08211548FFF784
:10048000FCFE10208DF803000220ADF800000320D0
:100490008DF8020069460F48FFF75BFE10208DF8CB
:1004A00003000420ADF8000003208DF80200694627
:1004B0000848FFF74EFE10208DF803000820ADF825
:1004C000000003208DF8020069460248FFF741FE54
:1004D00008BD00000008014000BFFEE770477047FC
:1004E00029B1064A92690243044B9A6104E0034A27
:1004F00092698243014B9A617047000000100240EC
:1005000001B5002001E000BF401C00998842FAD3E9
:1005100008BD01B54FF47A72009901FB02F000F0BA
:1005200001F808BD01B50099C800FFF7E9FF08BD53
:10053000704710B500F002F810BD00000CB50020A7
:10054000019000903348006840F4803031490860E1
:1005500000BF3048006800F4003000900198401C53
:100560000190009818B90198B0F5A06FF1D1294811
:10057000006800F4003010B10120009001E000207C
:1005800000900098012843D12348006840F01000F3
:10059000214908600846006820F007000860084606
:1005A000006840F0020008601A4840681949486035
:1005B0000846406848600846406840F480604860EB
:1005C0000846406820F47C1048600846406840F4C3
:1005D000E81048600846006840F08070086000BF7E
:1005E0000C48006800F000700028F9D00948406805
:1005F00020F00300074948600846406840F00200C8
:10060000486000BF0348406800F00C000828F9D19A
:100610000CBD0000001002400020024070470000A6
:1006200010B51348006840F0010011490860084601
:100630004068104908400E494860084600680E4965
:1006400008400B4908600846006820F480200860D4
:100650000846406820F4FE0048604FF41F008860A0
:10066000FFF767FF4FF000600449086010BD00000D
:10067000001002400000FFF8FFFFF6FE08ED00E06A
:1006800000BFFEE702E008C8121F08C1002AFAD125
:1006900070477047002001E001C1121F002AFBD102
:1006A0007047000000BFFFF7D1FEFFF78BFEFFF79A
:1006B0004BFEFFF7E7FD56E001212B48FFF76EFEEA
:1006C000012808D128480C30006880F00200264933
:1006D0000C31086047E04FF400512448FFF75EFEFC
:1006E000012808D120480C30006880F004001E4921
:1006F0000C31086037E020211D48FFF703FE40B9A8
:1007000019480C30006880F0080017490C31086067
:1007100029E040211648FFF7F5FD40B914480C3098
:10072000006880F4005012490C3108601BE0802101
:100730000F48FFF7E7FD40B90D480C30006880F422
:1007400080400B490C3108600DE04FF4807108487F
:10075000FFF7D8FD38B906480C30006880F4004037
:1007600003490C310860A7E7000801400010014070
:10077000000C014084070008000000200004000075
:0407800094060008D3
:0400000508000105E9
:00000001FF
