:020000040800F2
:1000000018040020050100084D030008B70200088D
:10001000490300084D0100088105000800000000A8
:100020000000000000000000000000007103000854
:1000300051010008000000004F030008B10400084F
:100040001F0100081F0100081F0100081F01000810
:100050001F0100081F010008550100081F010008CA
:100060001F0100081F0100081F0100081F010008F0
:100070001F0100081F0100081F0100081F010008E0
:100080001F0100081F0100081F0100081F010008D0
:100090001F0100081F0100081F0100081F010008C0
:1000A0001F0100081F0100081F0100081F010008B0
:1000B0001F0100081F0100081F0100081F010008A0
:1000C0001F0100081F0100081F0100081F01000890
:1000D0001F0100081F0100081F0100081F01000880
:1000E0001F0100081F0100081F010008DFF810D0E1
:1000F00000F01AF800480047A5050008AFF300809B
:10010000180400200648804706480047FEE7FEE73F
:10011000FEE7FEE7FEE7FEE7FEE7FEE7FEE7FEE7B7
:10012000B9040008ED000008064C074D06E0E06841
:1001300040F0010394E8070098471034AC42F6D32E
:10014000FFF7D8FF500600087006000800BFFEE762
:100150007047000010B5012000F014F8012808D104
:100160000448006880F0020002490860012000F0A5
:1001700003F810BD0C0801400149086070470000F9
:100180001404014001460020034A12680A400AB1E3
:10019000012000E000207047140401402DE9F041E7
:1001A000024600250026002000230024002791F8A5
:1001B00003C00CF00F0591F803C00CF0100CBCF15B
:1001C000000F03D091F802C04CEA050591F800C079
:1001D000BCF1000F31D0146800202BE04FF0010C6F
:1001E0000CFA00F3B1F800C00CEA03069E4220D1DD
:1001F00083004FF00F0C0CFA03F7BC4305FA03FC25
:100200004CEA040491F803C0BCF1280F06D14FF06A
:10021000010C0CFA00FCC2F814C00AE091F803C00B
:10022000BCF1480F05D14FF0010C0CFA00FCC2F8EC
:1002300010C0401C0828D1D31460B1F800C0BCF134
:10024000FF0F34DD546800202EE000F1080C4FF061
:10025000010808FA0CF3B1F800C00CEA03069E424C
:1002600021D183004FF00F0C0CFA03F7BC4305FAC1
:1002700003FC4CEA040491F803C0BCF1280F05D13B
:1002800000F1080C08FA0CF8C2F8148091F803C0C9
:10029000BCF1480F07D100F1080C4FF0010808FA33
:1002A0000CF8C2F81080401C0828CED35460BDE87A
:1002B000F0810161704700BFFEE7000008B5002033
:1002C00000900121042000F043F80121042000F0F7
:1002D0003FF80121042000F03BF802211948FFF704
:1002E000E8FF04211748FFF7E4FF08211548FFF74E
:1002F000E0FF10208DF803000220ADF8000003207D
:100300008DF8020069460F48FFF748FF10208DF86E
:1003100003000420ADF8000003208DF802006946B8
:100320000848FFF73BFF10208DF803000820ADF8C8
:10033000000003208DF8020069460248FFF72EFFF7
:1003400008BD00000008014000BFFEE7704770478D
:1003500029B1064A92690243044B9A6104E0034AB8
:1003600092698243014B9A6170470000001002407D
:10037000704710B500F002F810BD00000CB5002069
:10038000019000903348006840F4803031490860A3
:1003900000BF3048006800F4003000900198401C15
:1003A0000190009818B90198B0F5A06FF1D12948D3
:1003B000006800F4003010B10120009001E000203E
:1003C00000900098012843D12348006840F01000B5
:1003D000214908600846006820F0070008600846C8
:1003E000006840F0020008601A48406819494860F7
:1003F0000846406848600846406840F480604860AD
:100400000846406820F47C1048600846406840F484
:10041000E81048600846006840F08070086000BF3F
:100420000C48006800F000700028F9D009484068C6
:1004300020F00300074948600846406840F0020089
:10044000486000BF0348406800F00C000828F9D15C
:100450000CBD0000001002400020024030B50146F3
:10046000B1F1807F01D3012030BD21F07F40401EDB
:100470004FF0E022506150170F22002807DA1307CF
:100480001D0E094B00F00F04241F1D5503E0130738
:100490001C0E064B1C5400BF00204FF0E022906160
:1004A000072010610020DFE718ED00E000E400E025
:1004B00010B500F059F810BD10B51348006840F0B1
:1004C00001001149086008464068104908400E497B
:1004D0004860084600680E4908400B490860084615
:1004E000006820F4802008600846406820F4FE0080
:1004F00048604FF41F008860FFF73BFF4FF000603B
:100500000449086010BD0000001002400000FFF820
:10051000FFFFF6FE08ED00E031B5114800684FF42A
:100520007A71B0FBF1F52846FFF798FF0D49009866
:100530000860002408E000BF4FF0E020006900F4EC
:1005400080300028F8D0641C00988442F3D34FF028
:10055000E020006920F001004FF0E021086138BD83
:1005600000000020140000200448006820B1034867
:100570000068401E01490860704700001400002018
:1005800000BFFEE702E008C8121F08C1002AFAD126
:1005900070477047002001E001C1121F002AFBD103
:1005A000704700004FF49674FFF788FE4DE002207C
:1005B000264908600420091F0860082008602046BA
:1005C000FFF7AAFF02202149091F08600420091D26
:1005D00008600820091F08602046FFF79DFF0220E1
:1005E0001A49091F0860042008600820091D0860D6
:1005F0002046FFF791FF022014490860042008609C
:10060000082008602046FFF787FF02200F49091FD6
:10061000086004200860082008602046FFF77CFF7F
:1006200002200A490860042008600820086020466B
:10063000FFF772FF02200549091F086004200860C7
:10064000082008602046FFF767FFB0E71408014064
:100650007006000800000020180000008405000853
:100660008806000818000020000400009405000817
:1006700000A24A0400000000000000000102030480
:08068000060708090000000054
:0400000508000105E9
:00000001FF
