:020000040800F2
:100000000004002005010008910300087F02000899
:100010008D0300084D0100080505000800000000E0
:10002000000000000000000000000000B503000810
:10003000510100080000000093030008A10400081B
:100040001F0100081F0100081F0100081F01000810
:100050001F0100081F0100081F0100081F01000800
:100060001F0100081F0100081F0100081F010008F0
:100070001F0100081F0100081F0100081F010008E0
:100080001F0100081F0100081F0100081F010008D0
:100090001F0100081F0100081F0100081F010008C0
:1000A0001F0100081F0100081F0100081F010008B0
:1000B0001F0100081F0100081F0100081F010008A0
:1000C0001F0100081F0100081F0100081F01000890
:1000D0001F0100081F0100081F0100081F01000880
:1000E0001F0100081F0100081F010008DFF810D0E1
:1000F00000F01AF80048004729050008AFF3008017
:10010000000400200648804706480047FEE7FEE757
:10011000FEE7FEE7FEE7FEE7FEE7FEE7FEE7FEE7B7
:10012000A5040008ED000008064C074D06E0E06855
:1001300040F0010394E8070098471034AC42F6D32E
:10014000FFF7D8FF780500088805000800BFFEE724
:1001500070472DE9F04102460025002600200023CB
:100160000024002791F803C00CF00F0591F803C09C
:100170000CF0100CBCF1000F03D091F802C04CEA57
:10018000050591F800C0BCF1000F31D014680020C3
:100190002BE04FF0010C0CFA00F3B1F800C00CEAB0
:1001A00003069E4220D183004FF00F0C0CFA03F798
:1001B000BC4305FA03FC4CEA040491F803C0BCF10B
:1001C000280F06D14FF0010C0CFA00FCC2F814C045
:1001D0000AE091F803C0BCF1480F05D14FF0010CC3
:1001E0000CFA00FCC2F810C0401C0828D1D31460DF
:1001F000B1F800C0BCF1FF0F34DD546800202EE0E0
:1002000000F1080C4FF0010808FA0CF3B1F800C037
:100210000CEA03069E4221D183004FF00F0C0CFA2A
:1002200003F7BC4305FA03FC4CEA040491F803C04D
:10023000BCF1280F05D100F1080C08FA0CF8C2F83F
:10024000148091F803C0BCF1480F07D100F1080CED
:100250004FF0010808FA0CF8C2F81080401C08287A
:10026000CED35460BDE8F0810246002093680B4075
:100270000BB1012000E0002070470161704700BF12
:10028000FEE7000008B5002000900121042000F0E6
:1002900081F80121102000F07DF804208DF8030082
:1002A0000120ADF8000003208DF8020069460848DF
:1002B000FFF74FFF04208DF80300C002ADF80000E7
:1002C00003208DF8020069460248FFF742FF08BD8F
:1002D000000801400010014070B504460D46294653
:1002E0002046FFF7C1FF012808D100BF294620465C
:1002F000FFF7BAFF0128F9D0012070BD0020FCE70C
:1003000008B5002000900121042000F043F80121ED
:10031000042000F03FF80121042000F03BF8022106
:100320001948FFF7AAFF04211748FFF7A6FF082185
:100330001548FFF7A2FF10208DF803000220ADF84A
:10034000000003208DF8020069460F48FFF701FF07
:1003500010208DF803000420ADF8000003208DF874
:10036000020069460848FFF7F4FE10208DF80300EC
:100370000820ADF8000003208DF80200694602480D
:10038000FFF7E7FE08BD00000008014000BFFEE7E0
:100390007047704729B1064A92690243044B9A613B
:1003A00004E0034A92698243014B9A61704700005E
:1003B00000100240704710B500F002F810BD0000B8
:1003C0000CB50020019000903348006840F4803064
:1003D0003149086000BF3048006800F400300090E8
:1003E0000198401C0190009818B90198B0F5A06FD1
:1003F000F1D12948006800F4003010B101200090CC
:1004000001E0002000900098012843D123480068B3
:1004100040F01000214908600846006820F00700FD
:1004200008600846006840F0020008601A4840680A
:10043000194948600846406848600846406840F4EA
:10044000806048600846406820F47C104860084698
:10045000406840F4E81048600846006840F080704A
:10046000086000BF0C48006800F000700028F9D058
:100470000948406820F00300074948600846406882
:1004800040F00200486000BF0348406800F00C00E4
:100490000828F9D10CBD00000010024000200240E5
:1004A0007047000010B51348006840F00100114982
:1004B000086008464068104908400E4948600846F0
:1004C00000680E4908400B4908600846006820F49F
:1004D000802008600846406820F4FE0048604FF421
:1004E0001F008860FFF767FF4FF000600449086055
:1004F00010BD0000001002400000FFF8FFFFF6FEF4
:1005000008ED00E000BFFEE702E008C8121F08C1C6
:10051000002AFAD170477047002001E001C1121F84
:10052000002AFBD17047000000BFFFF7E9FEFFF78C
:10053000A9FE1CE001210E48FFF7CEFE012807D1DD
:100540000B480C30006880F0020009490C3108604B
:100550004FF400510748FFF7BFFE012807D10448B8
:100560000C30006880F0040001490C310860E1E7BC
:10057000000801400010014088050008000000202C
:0805800000040000180500084A
:0400000508000105E9
:00000001FF
